:100000000A128A11F92F00308A000408840A820734
:1000100000344D346F3474346F3472345F3452347E
:100020006534763465347234733465346434003442
:10003000533469346D3470346C3465345F34433414
:100040006F346E34743472346F346C34003453341F
:100050007434653470347034653472345F346D34A4
:100060006F34643465340034483469346734683438
:100070005F3453347034653465346434003444344C
:1000800043345F34533474346F34703470346534B3
:10009000643400346C346F3477345F3453347034E8
:0800A00065346534643400345A
:10089C0000300A128A115B240A128A1101300A12E2
:1008AC008A115B240A128A110800F30083120313C5
:1008BC00861273080A128A1196240A128A1183125C
:1008CC00031306160830F200C930F100F10B6C2C42
:1008DC00F20B6C2C712C83120313061208000430DB
:1008EC00710200300319700203187D2C7E2C952C9C
:1008FC007018812C852C831203131716882C8312E5
:10090C000313171297127108F3007008F20003100A
:10091C00F30CF20C0310F30CF20C720895000800A7
:10092C00F000701C9A2C9B2C9F2C83120313061422
:10093C00A22C831203130610F01CA52CA62CA82C99
:10094C008614A92C8610701DAC2CAD2CAF2C061562
:10095C00B02C0611F01DB32CB42CB62C8615B72C6C
:10096C0086110800F800F601F701CF2C76087807FD
:10097C0084000A128A1103200A128A110A128A119F
:10098C0047250A128A110130F6070318F70A0030BE
:10099C00F7077608780784000A128A1103200A12D6
:1009AC008A11003A031DDB2CDC2CBC2C0800F40152
:1009BC00F501701CE22CE32CE92C7208F4070318E7
:1009CC00F50A7308F50701300310F20DF30DFF3E25
:1009DC00031DEA2C01300310F10CF00CFF3E031D3B
:1009EC00F12C70087104031DFC2CFD2CDF2C7508F8
:1009FC00F1007408F0000800F6007603031D072DC3
:100A0C00082D242D74087F3EF9007908F500043078
:100A1C000310F50CFF3E031D0E2D7508F800790828
:100A2C000F39F70078080A128A115B240A128A110E
:100A3C0077080A128A115B240A128A110230760690
:100A4C00031D292D2A2D462D7408BF3EF900790867
:100A5C00F50004300310F50CFF3E031D302D750816
:100A6C00F80079080F39F70078080A128A115B240C
:100A7C000A128A1177080A128A115B240A128A1147
:100A8C000800F50075080F39F3007508F039F4000B
:100A9C008312031386167408F10004300310F10C52
:100AAC00FF3E031D542D71080A128A1196240A1256
:100ABC008A118312031306160830F200C930F100B4
:100ACC00F10B662DF20B662D6B2D831203130612A0
:100ADC000830F200C930F100F10B722DF20B722DBF
:100AEC00772D73080A128A1196240A128A1183121E
:100AFC00031306160830F200C930F100F10B842DF7
:100B0C00F20B842D892D8312031306120830F20088
:100B1C00C930F100F10B902DF20B902D952D0800A2
:100B2C0083120313A4006830F6000130F700240888
:100B3C00FB00FC017B08F0007C08F1003030F20077
:100B4C000030F3000A128A11DD240A128A1171088E
:100B5C00F9007008F8000A128A11F8250A128A1195
:100B6C00760883120313A700A501A601EA2D013014
:100B7C00FB00831203132B0AC52D0310FB0DFF3E44
:100B8C00031DC32D7B0885000130FB007B08AB07E0
:100B9C000430FD000C30FC003330FB00FB0BD42D7B
:100BAC00FC0BD42DFD0BD42DDB2D04308312031341
:100BBC002B06031DE22DE32DE42DAB010130A5071F
:100BCC000318A60A0030A6072608803AFB008030DE
:100BDC007B02031DF32D27082502031CF62DF72D90
:100BEC00BD2D080083120313A101F71FFE2DFF2D4D
:100BFC00062EF609F709F60A0319F70AA101A10A4C
:100C0C00F91F092E0A2E132EF809F909F80A0319EF
:100C1C00F90A0130FA007A08A106A201A3017608AC
:100C2C00770403191A2E1B2E522EA001A00A292E6E
:100C3C0001300310F60DF70DFF3E031D1F2E013082
:100C4C00FA007A08A007F71F2C2E2D2E1E2E01302D
:100C5C000310A20DA30DFF3E031D2E2E7708790263
:100C6C00031D3A2E76087802031C3D2E3E2E452E8F
:100C7C007608F8027708031CF903F90222140130F4
:100C8C000310F70CF60CFF3E031D462E0130A0029C
:100C9C00031D512E522E2D2E21080319562E572E80
:100CAC005C2EA209A309A20A0319A30A2308F700C0
:100CBC002208F6000800831603138601861206121A
:100CCC0000300A128A1196240A128A110230F60098
:100CDC00D430F5008530F400F40B722EF50B722E27
:100CEC00F60B722E0830F500C930F400F40B7C2E94
:100CFC00F50B7C2E812E03300A128A115B240A120A
:100D0C008A114E30F500EB30F400F40B8B2EF50B02
:100D1C008B2E03300A128A115B240A128A110330BB
:100D2C00F5005530F400F40B992EF50B992E033089
:100D3C000A128A115B240A128A1102300A128A11D1
:100D4C005B240A128A1102300A128A115B240A12DD
:100D5C008A1108300A128A115B240A128A11003097
:100D6C000A128A115B240A128A110C300A128A1197
:100D7C005B240A128A1100300A128A115B240A12AF
:100D8C008A1106300A128A115B240A128A11080091
:100D9C000A128A1161260A128A110A128A114E2429
:100DAC000A128A110530F40001300A128A11022548
:100DBC000A128A1110300A128A11B8240A128A11E6
:100DCC00FC30831603138800081088108312031359
:100DDC00081488109715171583160313071183121F
:100DEC0003131215121492107C3083160313920005
:100DFC000030F000F1000A128A1175240A128A11CF
:100E0C0083160313850183120313850183120313C5
:100E1C00081D112F122F372F01308806023088063B
:100E2C000A128A114E240A128A110530F40001307C
:100E3C000A128A1102250A128A1101300A128A1129
:100E4C00B8240A128A110D3083120313AA002D3014
:100E5C00A900D730A800A80B312FA90B312FAA0B52
:100E6C00312F83120313881D3C2F3D2F632F00302D
:100E7C00F000F1000A128A1175240A128A110A1262
:100E8C008A114E240A128A110530F40001300A121C
:100E9C008A1102250A128A1137300A128A11B824D3
:100EAC000A128A114E3083120313A900EA30A800EB
:100EBC00A80B5E2FA90B5E2F000083120313081ED4
:100ECC00682F692F8D2F1E300A128A1196250A124F
:100EDC008A110A128A114E240A128A110530F40062
:100EEC0001300A128A1102250A128A111F300A12C5
:100EFC008A11B8240A128A114E3083120313A900E6
:100F0C00EA30A800A80B882FA90B882F00008312A9
:100F1C000313881E922F932FBA2FFA30F000003053
:100F2C00F1000A128A1175240A128A110A128A1106
:100F3C004E240A128A110530F40001300A128A116B
:100F4C0002250A128A1142300A128A11B8240A1296
:100F5C008A114E3083120313A900EA30A800A80BA3
:100F6C00B52FA90BB52F000083120313081FBF2F39
:100F7C00C02FE72FF430F0000130F1000A128A1173
:100F8C0075240A128A110A128A114E240A128A1125
:100F9C000530F40001300A128A1102250A128A1156
:100FAC002C300A128A11B8240A128A114E3083127C
:100FBC000313A900EA30A800A80BE22FA90BE22F1B
:100FCC000000043083120313AA000C30A900333044
:100FDC00A800A80BEF2FA90BEF2FAA0BEF2F0C2FAC
:100FEC000A128A11002883120313AB0183010A121F
:040FFC008A11CE2E5A
:08400000FF3FFF3FFF3FFF3FC0
:02400E00713F00
:00000001FF
